{
  "contractName": "Beerclub",
  "abi": [
    {
      "inputs": [],
      "payable": false,
      "stateMutability": "nonpayable",
      "type": "constructor"
    },
    {
      "anonymous": false,
      "inputs": [
        {
          "indexed": false,
          "name": "s",
          "type": "string"
        }
      ],
      "name": "Verified",
      "type": "event"
    },
    {
      "constant": true,
      "inputs": [],
      "name": "isAuthenticated",
      "outputs": [
        {
          "name": "",
          "type": "bool"
        }
      ],
      "payable": false,
      "stateMutability": "view",
      "type": "function"
    },
    {
      "constant": true,
      "inputs": [],
      "name": "getIpfsHash",
      "outputs": [
        {
          "name": "",
          "type": "string"
        }
      ],
      "payable": false,
      "stateMutability": "view",
      "type": "function"
    },
    {
      "constant": false,
      "inputs": [
        {
          "name": "_ipfsHash",
          "type": "string"
        }
      ],
      "name": "setIpfsHash",
      "outputs": [],
      "payable": false,
      "stateMutability": "nonpayable",
      "type": "function"
    },
    {
      "constant": false,
      "inputs": [
        {
          "name": "a",
          "type": "uint256[2]"
        },
        {
          "name": "b",
          "type": "uint256[2][2]"
        },
        {
          "name": "c",
          "type": "uint256[2]"
        },
        {
          "name": "input",
          "type": "uint256[3]"
        }
      ],
      "name": "authenticate",
      "outputs": [],
      "payable": false,
      "stateMutability": "nonpayable",
      "type": "function"
    }
  ],
  "bytecode": "0x608060405234801561001057600080fd5b50336000806101000a81548173ffffffffffffffffffffffffffffffffffffffff021916908373ffffffffffffffffffffffffffffffffffffffff16021790555061288b806100606000396000f3fe608060405260043610610062576000357c0100000000000000000000000000000000000000000000000000000000900463ffffffff1680634e3b62ec14610067578063a4b825231461012f578063dc9638c71461015e578063e9f58b21146101ee575b600080fd5b34801561007357600080fd5b5061012d6004803603602081101561008a57600080fd5b81019080803590602001906401000000008111156100a757600080fd5b8201836020820111156100b957600080fd5b803590602001918460018302840111640100000000831117156100db57600080fd5b91908080601f016020809104026020016040519081016040528093929190818152602001838380828437600081840152601f19601f82011690508083019250505050505050919291929050505061035c565b005b34801561013b57600080fd5b50610144610460565b604051808215151515815260200191505060405180910390f35b34801561016a57600080fd5b506101736104b4565b6040518080602001828103825283818151815260200191508051906020019080838360005b838110156101b3578082015181840152602081019050610198565b50505050905090810190601f1680156101e05780820380516001836020036101000a031916815260200191505b509250505060405180910390f35b3480156101fa57600080fd5b5061035a600480360361016081101561021257600080fd5b8101908080604001906002806020026040519081016040528092919082600260200280828437600081840152601f19601f82011690508083019250505050505091929192908060800190600280602002604051908101604052809291906000905b828210156102c7578382604002016002806020026040519081016040528092919082600260200280828437600081840152601f19601f82011690508083019250505050505081526020019060010190610273565b50505050919291929080604001906002806020026040519081016040528092919082600260200280828437600081840152601f19601f820116905080830192505050505050919291929080606001906003806020026040519081016040528092919082600360200280828437600081840152601f19601f8201169050808301925050505050509192919290505050610556565b005b6000809054906101000a900473ffffffffffffffffffffffffffffffffffffffff1673ffffffffffffffffffffffffffffffffffffffff163373ffffffffffffffffffffffffffffffffffffffff16141515610446576040517f08c379a00000000000000000000000000000000000000000000000000000000081526004018080602001828103825260228152602001807f4f6e6c79206f776e65722063616e2063616c6c20746869732066756e6374696f81526020017f6e2e00000000000000000000000000000000000000000000000000000000000081525060400191505060405180910390fd5b806001908051906020019061045c929190612632565b5050565b6000600260003373ffffffffffffffffffffffffffffffffffffffff1673ffffffffffffffffffffffffffffffffffffffff16815260200190815260200160002060009054906101000a900460ff16905090565b606060018054600181600116156101000203166002900480601f01602080910402602001604051908101604052809291908181526020018280546001816001161561010002031660029004801561054c5780601f106105215761010080835404028352916020019161054c565b820191906000526020600020905b81548152906001019060200180831161052f57829003601f168201915b5050505050905090565b600260003373ffffffffffffffffffffffffffffffffffffffff1673ffffffffffffffffffffffffffffffffffffffff16815260200190815260200160002060009054906101000a900460ff1615151561063e576040517f08c379a00000000000000000000000000000000000000000000000000000000081526004018080602001828103825260238152602001807f596f752068617665206265656e20616c72656164792061757468656e7469636181526020017f746564000000000000000000000000000000000000000000000000000000000081525060400191505060405180910390fd5b606061068482600160038110151561065257fe5b602002015170010000000000000000000000000000000084600060038110151561067857fe5b602002015102016108f7565b90506060806106923361093b565b9150915081805190602001208380519060200120141515610767576040517f08c379a00000000000000000000000000000000000000000000000000000000081526004018080602001828103825260428152602001807f486173682076616c756520696e2070726f6f662e6a736f6e206973206469666681526020017f72656e742066726f6d20686173682076616c756520696e20746865206c65646781526020017f657200000000000000000000000000000000000000000000000000000000000081525060600191505060405180910390fd5b606080610772610c3e565b915091506000610783856000610f0c565b9050600061079e85848685610fea909392919063ffffffff16565b141515610813576040517f08c379a000000000000000000000000000000000000000000000000000000000815260040180806020018281038252600f8152602001807f5369676e6174757265206572726f72000000000000000000000000000000000081525060200191505060405180910390fd5b61081f8a8a8a8a611608565b1515610893576040517f08c379a00000000000000000000000000000000000000000000000000000000081526004018080602001828103825260128152602001807f496e76616c69642070726f6f662e6a736f6e000000000000000000000000000081525060200191505060405180910390fd5b6001600260003373ffffffffffffffffffffffffffffffffffffffff1673ffffffffffffffffffffffffffffffffffffffff16815260200190815260200160002060006101000a81548160ff02191690831515021790555050505050505050505050565b606060206040519080825280601f01601f19166020018201604052801561092d5781602001600182028038833980820191505090505b509050816020820152919050565b60608060006060736d58ae38ca510a119fb903b35b88fd5936a33ea773ffffffffffffffffffffffffffffffffffffffff1685604051602401808273ffffffffffffffffffffffffffffffffffffffff1673ffffffffffffffffffffffffffffffffffffffff16815260200180602001828103825260038152602001807f6167650000000000000000000000000000000000000000000000000000000000815250602001925050506040516020818303038152906040527f3bf58dba000000000000000000000000000000000000000000000000000000007bffffffffffffffffffffffffffffffffffffffffffffffffffffffff19166020820180517bffffffffffffffffffffffffffffffffffffffffffffffffffffffff83818316178352505050506040518082805190602001908083835b602083101515610a955780518252602082019150602081019050602083039250610a70565b6001836020036101000a0380198251168184511680821785525050505050509050019150506000604051808303816000865af19150503d8060008114610af7576040519150601f19603f3d011682016040523d82523d6000602084013e610afc565b606091505b5091509150811515610b76576040517f08c379a000000000000000000000000000000000000000000000000000000000815260040180806020018281038252601a8152602001807f43616e6e6f74206163636573732049445020636f6e747261637400000000000081525060200191505060405180910390fd5b808060200190516040811015610b8b57600080fd5b810190808051640100000000811115610ba357600080fd5b82810190506020810184811115610bb957600080fd5b8151856001820283011164010000000082111715610bd657600080fd5b50509291906020018051640100000000811115610bf257600080fd5b82810190506020810184811115610c0857600080fd5b8151856001820283011164010000000082111715610c2557600080fd5b5050929190505050819150809050935093505050915091565b6060806000606073ce43d89abbd54485be9a4009cc50f47dd623ae5473ffffffffffffffffffffffffffffffffffffffff166040516024018080602001828103825260038152602001807f61676500000000000000000000000000000000000000000000000000000000008152506020019150506040516020818303038152906040527fbff90821000000000000000000000000000000000000000000000000000000007bffffffffffffffffffffffffffffffffffffffffffffffffffffffff19166020820180517bffffffffffffffffffffffffffffffffffffffffffffffffffffffff83818316178352505050506040518082805190602001908083835b602083101515610d645780518252602082019150602081019050602083039250610d3f565b6001836020036101000a0380198251168184511680821785525050505050509050019150506000604051808303816000865af19150503d8060008114610dc6576040519150601f19603f3d011682016040523d82523d6000602084013e610dcb565b606091505b5091509150811515610e45576040517f08c379a000000000000000000000000000000000000000000000000000000000815260040180806020018281038252601a8152602001807f43616e6e6f742061636365737320444e5320636f6e747261637400000000000081525060200191505060405180910390fd5b808060200190516040811015610e5a57600080fd5b810190808051640100000000811115610e7257600080fd5b82810190506020810184811115610e8857600080fd5b8151856001820283011164010000000082111715610ea557600080fd5b50509291906020018051640100000000811115610ec157600080fd5b82810190506020810184811115610ed757600080fd5b8151856001820283011164010000000082111715610ef457600080fd5b50509291905050508191508090509350935050509091565b60008060008090505b6020811015610fdf576008810260ff7f01000000000000000000000000000000000000000000000000000000000000000286838701815181101515610f5657fe5b9060200101517f010000000000000000000000000000000000000000000000000000000000000090047f010000000000000000000000000000000000000000000000000000000000000002167effffffffffffffffffffffffffffffffffffffffffffffffffffffffffffff1916908060020a8204915050821791508080600101915050610f15565b508091505092915050565b6000610ff46126b2565b61026060405190810160405280603060ff168152602001603160ff168152602001603060ff168152602001600d60ff168152602001600660ff168152602001600960ff168152602001606060ff168152602001608660ff168152602001604860ff168152602001600160ff168152602001606560ff168152602001600360ff168152602001600460ff168152602001600260ff168152602001600160ff168152602001600560ff168152602001600060ff168152602001600460ff168152602001602060ff168152509050600b602060ff16601301018351101515156110d957600080fd5b600060606110e88787876118b0565b90506000815190506000865190506060816040519080825280601f01601f19166020018201604052801561112b5781602001600182028038833980820191505090505b5090508160208201846020870160056107d05a03fa50600060206013600385030303905060007f01000000000000000000000000000000000000000000000000000000000000000282600081518110151561118257fe5b9060200101517f010000000000000000000000000000000000000000000000000000000000000090047f0100000000000000000000000000000000000000000000000000000000000000027effffffffffffffffffffffffffffffffffffffffffffffffffffffffffffff191614158061127c5750600182600181518110151561120857fe5b9060200101517f010000000000000000000000000000000000000000000000000000000000000090047f0100000000000000000000000000000000000000000000000000000000000000027f0100000000000000000000000000000000000000000000000000000000000000900460ff1614155b15611291576001975050505050505050611600565b600295505b806002018610156113645760ff7f01000000000000000000000000000000000000000000000000000000000000000282878151811015156112d357fe5b9060200101517f010000000000000000000000000000000000000000000000000000000000000090047f0100000000000000000000000000000000000000000000000000000000000000027effffffffffffffffffffffffffffffffffffffffffffffffffffffffffffff1916141515611357576002975050505050505050611600565b8580600101965050611296565b60007f010000000000000000000000000000000000000000000000000000000000000002828260020181518110151561139957fe5b9060200101517f010000000000000000000000000000000000000000000000000000000000000090047f0100000000000000000000000000000000000000000000000000000000000000027effffffffffffffffffffffffffffffffffffffffffffffffffffffffffffff191614151561141d576003975050505050505050611600565b600095505b60138610156114e957868660138110151561143957fe5b602002015160ff168287836003010181518110151561145457fe5b9060200101517f010000000000000000000000000000000000000000000000000000000000000090047f0100000000000000000000000000000000000000000000000000000000000000027f0100000000000000000000000000000000000000000000000000000000000000900460ff161415156114dc576004975050505050505050611600565b8580600101965050611422565b600095505b602060ff168610156115f4578b8660208110151561150857fe5b1a7f0100000000000000000000000000000000000000000000000000000000000000027effffffffffffffffffffffffffffffffffffffffffffffffffffffffffffff19168287601384600301010181518110151561156357fe5b9060200101517f010000000000000000000000000000000000000000000000000000000000000090047f0100000000000000000000000000000000000000000000000000000000000000027effffffffffffffffffffffffffffffffffffffffffffffffffffffffffffff19161415156115e7576005975050505050505050611600565b85806001019650506114ee565b60009750505050505050505b949350505050565b60006116126126d6565b604080519081016040528087600060028110151561162c57fe5b6020020151815260200187600160028110151561164557fe5b602002015181525081600001819052506040805190810160405280604080519081016040528088600060028110151561167a57fe5b6020020151600060028110151561168d57fe5b602002015181526020018860006002811015156116a657fe5b602002015160016002811015156116b957fe5b6020020151815250815260200160408051908101604052808860016002811015156116e057fe5b602002015160006002811015156116f357fe5b6020020151815260200188600160028110151561170c57fe5b6020020151600160028110151561171f57fe5b60200201518152508152508160200181905250604080519081016040528085600060028110151561174c57fe5b6020020151815260200185600160028110151561176557fe5b60200201518152508160400181905250606060036040519080825280602002602001820160405280156117a75781602001602082028038833980820191505090505b50905060008090505b60038110156117f55784816003811015156117c757fe5b602002015182828151811015156117da57fe5b906020019060200201818152505080806001019150506117b0565b5060006118028284611984565b14156118a1577f3f3cfdb26fb5f9f1786ab4f1a1f9cd4c0b5e726cbdfc26e495261731aad44e396040518080602001828103825260228152602001807f5472616e73616374696f6e207375636365737366756c6c79207665726966696581526020017f642e00000000000000000000000000000000000000000000000000000000000081525060400191505060405180910390a16001925050506118a8565b6000925050505b949350505050565b60606000825184518651606001010190506000855190506000855190506000855190506000806000806060886040519080825280601f01601f19166020018201604052801561190e5781602001600182028038833980820191505090505b50905060208d01945060208c01935060208b01925087602082015286604082015285606082015260208101915061194a60608301868f51611b0c565b61195c8d516060840101858e51611b0c565b6119718c518e51606085010101848d51611b0c565b8099505050505050505050509392505050565b6000807f30644e72e131a029b85045b68181585d2833e84879b9709143e1f593f000000190506119b261270b565b6119ba611b57565b905080608001515160018651011415156119d357600080fd5b6119db612754565b6040805190810160405280600081526020016000815250905060008090505b8651811015611a7f57838782815181101515611a1257fe5b90602001906020020151101515611a2857600080fd5b611a7082611a6b856080015160018501815181101515611a4457fe5b906020019060200201518a85815181101515611a5c57fe5b90602001906020020151612026565b6120c2565b915080806001019150506119fa565b50611aa68183608001516000815181101515611a9757fe5b906020019060200201516120c2565b9050611aec85600001518660200151611abe8461217f565b8560400151611ad08a6040015161217f565b8760600151611ae2896000015161217f565b896020015161221b565b1515611afe5760019350505050611b06565b600093505050505b92915050565b5b602081101515611b325781518352602083019250602082019150602081039050611b0d565b60006001826020036101000a0390508019835116818551168181178652505050505050565b611b5f61270b565b60408051908101604052807f05d887c8266ae0e0cc29f1f010d8c3b4d58e0d7c1e116edd48e518bfa7b5a4e981526020017f0f83e472862e26dfb603e021f9948f33f847194a9573e521a953d764aeee46288152508160000181905250604080519081016040528060408051908101604052807f01b10a8a1de60fc2072ad532f84d8cc0936296aeddd4ac5c0dce587cb8b6defb81526020017f0a488da88a52716fdcd14ab999af795ea318c2350442c6ba2048d4decf63959c815250815260200160408051908101604052807f28d2ac6c8ec3d760673d6820280a28461edcebf06eb81e4f67852a62f99b318281526020017f0925e0ff1a3ec4463e2e52a64326895dfe40a07cb6afa66d2187d789ffc97a738152508152508160200181905250604080519081016040528060408051908101604052807f0c8df63f8e6321b6fadd355421ccf1e3798c1e21cb830ec40231205673acdf8c81526020017f14f50f1d0760f22b671ead74dc171cbda07f57340828f71e30b25397c8ddd809815250815260200160408051908101604052807f085eb2bbad3f296dd17edf4f2bc6b5983a76ddef25aed6f9313b16e2bbfe9e5f81526020017f2047f54e9f5acfbd4c5ce73370b905631654ef27c476285b559b8e0b3bb640c98152508152508160400181905250604080519081016040528060408051908101604052807f23de7c1de870d94b4b6e57a05954fac4f7565c7ab4926af07af27e965783e22a81526020017f02921039a2c9cfdd5514745754f5584e4e36c41dcb7ba57406d6a31e0a559fbb815250815260200160408051908101604052807f15835255b731107af89bc521f2a3f6dc1c244cec87b511a85a56a472adda25f181526020017f0dc6a42c6e9c69a2f7d97ce3dd183b1c489019bb66a6b709fb540de8ece48c2481525081525081606001819052506004604051908082528060200260200182016040528015611e4657816020015b611e3361276e565b815260200190600190039081611e2b5790505b50816080018190525060408051908101604052807f276e014efcc5b9e4b8454a0addcd28b1cb9c89f450975f4771e19faa32568b9781526020017f0d438c3722e6efa8b46d0ecda04f4e507ae45162f3e60f30ed4a9f3bfa73982881525081608001516000815181101515611eb757fe5b9060200190602002018190525060408051908101604052807f19183b214296735761ba95b50e2bbd71494b2793773d16ffed69bae9857d613881526020017f2455697745c6927ab29dbcbb5224c2b8d8944285a5fd322a746ef1240c9261a281525081608001516001815181101515611f2c57fe5b9060200190602002018190525060408051908101604052807f1b72de1e189668a92998d78d4f618c7f15ff4c17db0d64c2d9e270dc2237e84681526020017f25970dcecf079eca63f293e69e2549dfad6f79b6de35c7fb32b49beeab54944081525081608001516002815181101515611fa157fe5b9060200190602002018190525060408051908101604052807f2726c99c753018c3b5293cc037bb62709fd2804bbe7b8f9951d9a4bdcad5237581526020017f2b5decdf5dc56a867e88bea3c88e8655c73e9f1fcb9670812672d7204dae87178152508160800151600381518110151561201657fe5b9060200190602002018190525090565b61202e612754565b612036612788565b836000015181600060038110151561204a57fe5b602002018181525050836020015181600160038110151561206757fe5b6020020181815250508281600260038110151561208057fe5b6020020181815250506000606083608084600060076107d05a03f1905080600081146120ab576120ad565bfe5b508015156120ba57600080fd5b505092915050565b6120ca612754565b6120d26127ab565b83600001518160006004811015156120e657fe5b602002018181525050836020015181600160048110151561210357fe5b602002018181525050826000015181600260048110151561212057fe5b602002018181525050826020015181600360048110151561213d57fe5b602002018181525050600060608360c084600060066107d05a03f1905080600081146121685761216a565bfe5b5080151561217757600080fd5b505092915050565b612187612754565b60007f30644e72e131a029b85045b68181585d97816a916871ca8d3c208c16d87cfd479050600083600001511480156121c4575060008360200151145b156121e8576040805190810160405280600081526020016000815250915050612216565b60408051908101604052808460000151815260200182856020015181151561220c57fe5b0683038152509150505b919050565b60006060600460405190808252806020026020018201604052801561225a57816020015b61224761276e565b81526020019060019003908161223f5790505b5090506060600460405190808252806020026020018201604052801561229a57816020015b6122876127ce565b81526020019060019003908161227f5790505b5090508a8260008151811015156122ad57fe5b90602001906020020181905250888260018151811015156122ca57fe5b90602001906020020181905250868260028151811015156122e757fe5b906020019060200201819052508482600381518110151561230457fe5b906020019060200201819052508981600081518110151561232157fe5b906020019060200201819052508781600181518110151561233e57fe5b906020019060200201819052508581600281518110151561235b57fe5b906020019060200201819052508381600381518110151561237857fe5b9060200190602002018190525061238f828261239f565b9250505098975050505050505050565b6000815183511415156123b157600080fd5b60008351905060006006820290506060816040519080825280602002602001820160405280156123f05781602001602082028038833980820191505090505b50905060008090505b838110156125ce57868181518110151561240f57fe5b9060200190602002015160000151826000600684020181518110151561243157fe5b9060200190602002018181525050868181518110151561244d57fe5b9060200190602002015160200151826001600684020181518110151561246f57fe5b9060200190602002018181525050858181518110151561248b57fe5b906020019060200201516000015160006002811015156124a757fe5b602002015182600260068402018151811015156124c057fe5b906020019060200201818152505085818151811015156124dc57fe5b906020019060200201516000015160016002811015156124f857fe5b6020020151826003600684020181518110151561251157fe5b9060200190602002018181525050858181518110151561252d57fe5b9060200190602002015160200151600060028110151561254957fe5b6020020151826004600684020181518110151561256257fe5b9060200190602002018181525050858181518110151561257e57fe5b9060200190602002015160200151600160028110151561259a57fe5b602002015182600560068402018151811015156125b357fe5b906020019060200201818152505080806001019150506123f9565b506125d76127f5565b60006020826020860260208601600060086107d05a03f1905080600081146125fe57612600565bfe5b5080151561260d57600080fd5b600082600060018110151561261e57fe5b602002015114159550505050505092915050565b828054600181600116156101000203166002900490600052602060002090601f016020900481019282601f1061267357805160ff19168380011785556126a1565b828001600101855582156126a1579182015b828111156126a0578251825591602001919060010190612685565b5b5090506126ae9190612818565b5090565b61026060405190810160405280601390602082028038833980820191505090505090565b610100604051908101604052806126eb61276e565b81526020016126f86127ce565b815260200161270561276e565b81525090565b6101e06040519081016040528061272061276e565b815260200161272d6127ce565b815260200161273a6127ce565b81526020016127476127ce565b8152602001606081525090565b604080519081016040528060008152602001600081525090565b604080519081016040528060008152602001600081525090565b606060405190810160405280600390602082028038833980820191505090505090565b608060405190810160405280600490602082028038833980820191505090505090565b6080604051908101604052806127e261283d565b81526020016127ef61283d565b81525090565b602060405190810160405280600190602082028038833980820191505090505090565b61283a91905b8082111561283657600081600090555060010161281e565b5090565b90565b604080519081016040528060029060208202803883398082019150509050509056fea165627a7a723058207b718b6c1121546fb439e6945a7d33843a990cd848bee3cd42bfd721afda6e810029",
  "source": "pragma solidity ^0.5.0;\n\nimport './lib/rsaverify.sol';\nimport './lib/verifier.sol';\n\ncontract Beerclub {\n    using Pairing for *;\n    using rsaverify for *;\n\n    address constant idpContract = 0x6D58AE38ca510a119fb903B35B88Fd5936a33eA7;\n    address constant dnsContract = 0xCE43d89aBBD54485be9a4009Cc50F47dD623aE54;\n    \n    address private owner;\n    string private ipfsHash;\n    mapping(address => bool) private authenticated;\n\n    constructor() public {\n        owner = msg.sender;\n    }\n\n    function isAuthenticated() public view returns(bool) {\n        return authenticated[msg.sender];\n    }\n\n    function getIpfsHash() public view returns(string memory) {\n        return ipfsHash;\n    }\n\n    function setIpfsHash(string memory _ipfsHash) public onlyOwner () {\n        ipfsHash = _ipfsHash;\n    }\n\n    function getHashAndSignature(address addr) private returns(bytes memory, bytes memory) {\n        (bool success, bytes memory result) = idpContract.call(abi.encodeWithSignature(\"getData(address,string)\", addr, 'age'));\n        require(success, \"Cannot access IDP contract\");\n        return abi.decode(result, (bytes, bytes));\n    }\n\n    function getModulusAndExponent() private returns(bytes memory, bytes memory) {\n        (bool success, bytes memory result) = dnsContract.call(abi.encodeWithSignature(\"getPublicKey(string)\", 'age'));\n        require(success, \"Cannot access DNS contract\");\n        return abi.decode(result, (bytes, bytes));\n    }\n\n    function authenticate(uint[2] memory a, uint[2][2] memory b, uint[2] memory c, uint[3] memory input) public {\n        require(!authenticated[msg.sender], \"You have been already authenticated\");\n        bytes memory inputHash = toBytes(input[0] * 340282366920938463463374607431768211456 + input[1]);\n        (bytes memory hash, bytes memory signature) = getHashAndSignature(msg.sender);\n        require(keccak256(inputHash) == keccak256(hash), \"Hash value in proof.json is diffrent from hash value in the ledger\");\n        (bytes memory modulus, bytes memory exponent) = getModulusAndExponent();\n        bytes32 hash32 = bytesToBytes32(hash, 0);\n        require(hash32.pkcs1Sha256Verify(signature, exponent, modulus) == 0, \"Signature error\");\n        require(verifyTx(a, b, c, input), \"Invalid proof.json\");\n        authenticated[msg.sender] = true;\n    }\n\n    function toBytes(uint x) private pure returns (bytes memory b) {\n        b = new bytes(32);\n        assembly { mstore(add(b, 32), x) }\n    }\n    \n    function bytesToBytes32(bytes memory b, uint offset) private pure returns (bytes32) {\n        bytes32 out;\n    \n        for (uint i = 0; i < 32; i++) {\n            out |= bytes32(b[offset + i] & 0xFF) >> (i * 8);\n        }\n        return out;\n    }\n\n    modifier onlyOwner {\n        require(msg.sender == owner, \"Only owner can call this function.\");\n        _;\n    }\n\n    struct VerifyingKey {\n        Pairing.G1Point a;\n        Pairing.G2Point b;\n        Pairing.G2Point gamma;\n        Pairing.G2Point delta;\n        Pairing.G1Point[] gamma_abc;\n    }\n    struct Proof {\n        Pairing.G1Point a;\n        Pairing.G2Point b;\n        Pairing.G1Point c;\n    }\n    function verifyingKey() pure internal returns (VerifyingKey memory vk) {\n        vk.a = Pairing.G1Point(uint256(0x05d887c8266ae0e0cc29f1f010d8c3b4d58e0d7c1e116edd48e518bfa7b5a4e9), uint256(0x0f83e472862e26dfb603e021f9948f33f847194a9573e521a953d764aeee4628));\n        vk.b = Pairing.G2Point([uint256(0x01b10a8a1de60fc2072ad532f84d8cc0936296aeddd4ac5c0dce587cb8b6defb), uint256(0x0a488da88a52716fdcd14ab999af795ea318c2350442c6ba2048d4decf63959c)], [uint256(0x28d2ac6c8ec3d760673d6820280a28461edcebf06eb81e4f67852a62f99b3182), uint256(0x0925e0ff1a3ec4463e2e52a64326895dfe40a07cb6afa66d2187d789ffc97a73)]);\n        vk.gamma = Pairing.G2Point([uint256(0x0c8df63f8e6321b6fadd355421ccf1e3798c1e21cb830ec40231205673acdf8c), uint256(0x14f50f1d0760f22b671ead74dc171cbda07f57340828f71e30b25397c8ddd809)], [uint256(0x085eb2bbad3f296dd17edf4f2bc6b5983a76ddef25aed6f9313b16e2bbfe9e5f), uint256(0x2047f54e9f5acfbd4c5ce73370b905631654ef27c476285b559b8e0b3bb640c9)]);\n        vk.delta = Pairing.G2Point([uint256(0x23de7c1de870d94b4b6e57a05954fac4f7565c7ab4926af07af27e965783e22a), uint256(0x02921039a2c9cfdd5514745754f5584e4e36c41dcb7ba57406d6a31e0a559fbb)], [uint256(0x15835255b731107af89bc521f2a3f6dc1c244cec87b511a85a56a472adda25f1), uint256(0x0dc6a42c6e9c69a2f7d97ce3dd183b1c489019bb66a6b709fb540de8ece48c24)]);\n        vk.gamma_abc = new Pairing.G1Point[](4);\n        vk.gamma_abc[0] = Pairing.G1Point(uint256(0x276e014efcc5b9e4b8454a0addcd28b1cb9c89f450975f4771e19faa32568b97), uint256(0x0d438c3722e6efa8b46d0ecda04f4e507ae45162f3e60f30ed4a9f3bfa739828));\n        vk.gamma_abc[1] = Pairing.G1Point(uint256(0x19183b214296735761ba95b50e2bbd71494b2793773d16ffed69bae9857d6138), uint256(0x2455697745c6927ab29dbcbb5224c2b8d8944285a5fd322a746ef1240c9261a2));\n        vk.gamma_abc[2] = Pairing.G1Point(uint256(0x1b72de1e189668a92998d78d4f618c7f15ff4c17db0d64c2d9e270dc2237e846), uint256(0x25970dcecf079eca63f293e69e2549dfad6f79b6de35c7fb32b49beeab549440));\n        vk.gamma_abc[3] = Pairing.G1Point(uint256(0x2726c99c753018c3b5293cc037bb62709fd2804bbe7b8f9951d9a4bdcad52375), uint256(0x2b5decdf5dc56a867e88bea3c88e8655c73e9f1fcb9670812672d7204dae8717));\n    }\n    function verify(uint[] memory input, Proof memory proof) internal returns (uint) {\n        uint256 snark_scalar_field = 21888242871839275222246405745257275088548364400416034343698204186575808495617;\n        VerifyingKey memory vk = verifyingKey();\n        require(input.length + 1 == vk.gamma_abc.length);\n        // Compute the linear combination vk_x\n        Pairing.G1Point memory vk_x = Pairing.G1Point(0, 0);\n        for (uint i = 0; i < input.length; i++) {\n            require(input[i] < snark_scalar_field);\n            vk_x = Pairing.addition(vk_x, Pairing.scalar_mul(vk.gamma_abc[i + 1], input[i]));\n        }\n        vk_x = Pairing.addition(vk_x, vk.gamma_abc[0]);\n        if(!Pairing.pairingProd4(\n            proof.a, proof.b,\n                Pairing.negate(vk_x), vk.gamma,\n            Pairing.negate(proof.c), vk.delta,\n            Pairing.negate(vk.a), vk.b)) return 1;\n            return 0;\n    }\n    event Verified(string s);\n    function verifyTx(\n        uint[2] memory a,\n        uint[2][2] memory b,\n        uint[2] memory c,\n        uint[3] memory input\n    ) private returns (bool r) {\n        Proof memory proof;\n        proof.a = Pairing.G1Point(a[0], a[1]);\n        proof.b = Pairing.G2Point([b[0][0], b[0][1]], [b[1][0], b[1][1]]);\n        proof.c = Pairing.G1Point(c[0], c[1]);\n        uint[] memory inputValues = new uint[](input.length);\n        for(uint i = 0; i < input.length; i++){\n            inputValues[i] = input[i];\n        }\n        if (verify(inputValues, proof) == 0) {\n            emit Verified(\"Transaction successfully verified.\");\n            return true;\n        } else {\n            return false;\n        }\n    }\n}\n",
  "sourcePath": "/Users/dakennguyen/Documents/Workspace/Blockchain/thesis/services/beer-club/contracts/Beerclub.sol",
  "compiler": {
    "name": "solc",
    "version": "0.5.0+commit.1d4f565a.Emscripten.clang"
  },
  "schemaVersion": "3.0.2",
  "updatedAt": "2019-12-09T18:30:36.651Z",
  "devdoc": {
    "methods": {}
  },
  "userdoc": {
    "methods": {}
  }
}