{
  "contractName": "Library",
  "abi": [
    {
      "inputs": [],
      "payable": false,
      "stateMutability": "nonpayable",
      "type": "constructor",
      "signature": "constructor"
    },
    {
      "anonymous": false,
      "inputs": [
        {
          "indexed": false,
          "name": "s",
          "type": "string"
        }
      ],
      "name": "Verified",
      "type": "event",
      "signature": "0x3f3cfdb26fb5f9f1786ab4f1a1f9cd4c0b5e726cbdfc26e495261731aad44e39"
    },
    {
      "constant": true,
      "inputs": [],
      "name": "isAuthenticated",
      "outputs": [
        {
          "name": "",
          "type": "bool"
        }
      ],
      "payable": false,
      "stateMutability": "view",
      "type": "function",
      "signature": "0xa4b82523"
    },
    {
      "constant": true,
      "inputs": [],
      "name": "getIpfsHash",
      "outputs": [
        {
          "name": "",
          "type": "string"
        }
      ],
      "payable": false,
      "stateMutability": "view",
      "type": "function",
      "signature": "0xdc9638c7"
    },
    {
      "constant": false,
      "inputs": [
        {
          "name": "_ipfsHash",
          "type": "string"
        }
      ],
      "name": "setIpfsHash",
      "outputs": [],
      "payable": false,
      "stateMutability": "nonpayable",
      "type": "function",
      "signature": "0x4e3b62ec"
    },
    {
      "constant": false,
      "inputs": [
        {
          "name": "a",
          "type": "uint256[2]"
        },
        {
          "name": "b",
          "type": "uint256[2][2]"
        },
        {
          "name": "c",
          "type": "uint256[2]"
        },
        {
          "name": "input",
          "type": "uint256[5]"
        }
      ],
      "name": "authenticate",
      "outputs": [],
      "payable": false,
      "stateMutability": "nonpayable",
      "type": "function",
      "signature": "0x417692bc"
    },
    {
      "constant": false,
      "inputs": [
        {
          "name": "a",
          "type": "uint256[2]"
        },
        {
          "name": "b",
          "type": "uint256[2][2]"
        },
        {
          "name": "c",
          "type": "uint256[2]"
        },
        {
          "name": "input",
          "type": "uint256[5]"
        }
      ],
      "name": "verifyTx",
      "outputs": [
        {
          "name": "r",
          "type": "bool"
        }
      ],
      "payable": false,
      "stateMutability": "nonpayable",
      "type": "function",
      "signature": "0x33a5bae4"
    }
  ],
  "bytecode": "0x608060405234801561001057600080fd5b50336000806101000a81548173ffffffffffffffffffffffffffffffffffffffff021916908373ffffffffffffffffffffffffffffffffffffffff160217905550612c1e806100606000396000f3fe60806040526004361061006d576000357c0100000000000000000000000000000000000000000000000000000000900463ffffffff16806333a5bae414610072578063417692bc146101f85780634e3b62ec14610366578063a4b825231461042e578063dc9638c71461045d575b600080fd5b34801561007e57600080fd5b506101de60048036036101a081101561009657600080fd5b8101908080604001906002806020026040519081016040528092919082600260200280828437600081840152601f19601f82011690508083019250505050505091929192908060800190600280602002604051908101604052809291906000905b8282101561014b578382604002016002806020026040519081016040528092919082600260200280828437600081840152601f19601f820116905080830192505050505050815260200190600101906100f7565b50505050919291929080604001906002806020026040519081016040528092919082600260200280828437600081840152601f19601f82011690508083019250505050505091929192908060a001906005806020026040519081016040528092919082600560200280828437600081840152601f19601f82011690508083019250505050505091929192905050506104ed565b604051808215151515815260200191505060405180910390f35b34801561020457600080fd5b5061036460048036036101a081101561021c57600080fd5b8101908080604001906002806020026040519081016040528092919082600260200280828437600081840152601f19601f82011690508083019250505050505091929192908060800190600280602002604051908101604052809291906000905b828210156102d1578382604002016002806020026040519081016040528092919082600260200280828437600081840152601f19601f8201169050808301925050505050508152602001906001019061027d565b50505050919291929080604001906002806020026040519081016040528092919082600260200280828437600081840152601f19601f82011690508083019250505050505091929192908060a001906005806020026040519081016040528092919082600560200280828437600081840152601f19601f8201169050808301925050505050509192919290505050610795565b005b34801561037257600080fd5b5061042c6004803603602081101561038957600080fd5b81019080803590602001906401000000008111156103a657600080fd5b8201836020820111156103b857600080fd5b803590602001918460018302840111640100000000831117156103da57600080fd5b91908080601f016020809104026020016040519081016040528093929190818152602001838380828437600081840152601f19601f820116905080830192505050505050509192919290505050610a27565b005b34801561043a57600080fd5b50610443610b2b565b604051808215151515815260200191505060405180910390f35b34801561046957600080fd5b50610472610b7f565b6040518080602001828103825283818151815260200191508051906020019080838360005b838110156104b2578082015181840152602081019050610497565b50505050905090810190601f1680156104df5780820380516001836020036101000a031916815260200191505b509250505060405180910390f35b60006104f76129c5565b604080519081016040528087600060028110151561051157fe5b6020020151815260200187600160028110151561052a57fe5b602002015181525081600001819052506040805190810160405280604080519081016040528088600060028110151561055f57fe5b6020020151600060028110151561057257fe5b6020020151815260200188600060028110151561058b57fe5b6020020151600160028110151561059e57fe5b6020020151815250815260200160408051908101604052808860016002811015156105c557fe5b602002015160006002811015156105d857fe5b602002015181526020018860016002811015156105f157fe5b6020020151600160028110151561060457fe5b60200201518152508152508160200181905250604080519081016040528085600060028110151561063157fe5b6020020151815260200185600160028110151561064a57fe5b602002015181525081604001819052506060600560405190808252806020026020018201604052801561068c5781602001602082028038833980820191505090505b50905060008090505b60058110156106da5784816005811015156106ac57fe5b602002015182828151811015156106bf57fe5b90602001906020020181815250508080600101915050610695565b5060006106e78284610c21565b1415610786577f3f3cfdb26fb5f9f1786ab4f1a1f9cd4c0b5e726cbdfc26e495261731aad44e396040518080602001828103825260228152602001807f5472616e73616374696f6e207375636365737366756c6c79207665726966696581526020017f642e00000000000000000000000000000000000000000000000000000000000081525060400191505060405180910390a160019250505061078d565b6000925050505b949350505050565b600260003373ffffffffffffffffffffffffffffffffffffffff1673ffffffffffffffffffffffffffffffffffffffff16815260200190815260200160002060009054906101000a900460ff1615151561087d576040517f08c379a00000000000000000000000000000000000000000000000000000000081526004018080602001828103825260238152602001807f596f752068617665206265656e20616c72656164792061757468656e7469636181526020017f746564000000000000000000000000000000000000000000000000000000000081525060400191505060405180910390fd5b6108e36040805190810160405280600481526020017f6e616d65000000000000000000000000000000000000000000000000000000008152508260006005811015156108c557fe5b60200201518360016005811015156108d957fe5b6020020151610da9565b6109496040805190810160405280600381526020017f756e69000000000000000000000000000000000000000000000000000000000081525082600260058110151561092b57fe5b602002015183600360058110151561093f57fe5b6020020151610da9565b610955848484846104ed565b15156109c9576040517f08c379a00000000000000000000000000000000000000000000000000000000081526004018080602001828103825260128152602001807f496e76616c69642070726f6f662e6a736f6e000000000000000000000000000081525060200191505060405180910390fd5b6001600260003373ffffffffffffffffffffffffffffffffffffffff1673ffffffffffffffffffffffffffffffffffffffff16815260200190815260200160002060006101000a81548160ff02191690831515021790555050505050565b6000809054906101000a900473ffffffffffffffffffffffffffffffffffffffff1673ffffffffffffffffffffffffffffffffffffffff163373ffffffffffffffffffffffffffffffffffffffff16141515610b11576040517f08c379a00000000000000000000000000000000000000000000000000000000081526004018080602001828103825260228152602001807f4f6e6c79206f776e65722063616e2063616c6c20746869732066756e6374696f81526020017f6e2e00000000000000000000000000000000000000000000000000000000000081525060400191505060405180910390fd5b8060019080519060200190610b279291906129fa565b5050565b6000600260003373ffffffffffffffffffffffffffffffffffffffff1673ffffffffffffffffffffffffffffffffffffffff16815260200190815260200160002060009054906101000a900460ff16905090565b606060018054600181600116156101000203166002900480601f016020809104026020016040519081016040528092919081815260200182805460018160011615610100020316600290048015610c175780601f10610bec57610100808354040283529160200191610c17565b820191906000526020600020905b815481529060010190602001808311610bfa57829003601f168201915b5050505050905090565b6000807f30644e72e131a029b85045b68181585d2833e84879b9709143e1f593f00000019050610c4f612a7a565b610c57610f65565b90508060800151516001865101141515610c7057600080fd5b610c78612ac3565b6040805190810160405280600081526020016000815250905060008090505b8651811015610d1c57838782815181101515610caf57fe5b90602001906020020151101515610cc557600080fd5b610d0d82610d08856080015160018501815181101515610ce157fe5b906020019060200201518a85815181101515610cf957fe5b9060200190602002015161151e565b6115ba565b91508080600101915050610c97565b50610d438183608001516000815181101515610d3457fe5b906020019060200201516115ba565b9050610d8985600001518660200151610d5b84611677565b8560400151610d6d8a60400151611677565b8760600151610d7f8960000151611677565b8960200151611713565b1515610d9b5760019350505050610da3565b600093505050505b92915050565b6060610dc982700100000000000000000000000000000000850201611897565b9050606080610dd833876118db565b9150915081805190602001208380519060200120141515610ead576040517f08c379a00000000000000000000000000000000000000000000000000000000081526004018080602001828103825260428152602001807f486173682076616c756520696e2070726f6f662e6a736f6e206973206469666681526020017f72656e742066726f6d20686173682076616c756520696e20746865206c65646781526020017f657200000000000000000000000000000000000000000000000000000000000081525060600191505060405180910390fd5b606080610eb988611c14565b915091506000610eca856000611f17565b90506000610ee585848685611ff5909392919063ffffffff16565b141515610f5a576040517f08c379a000000000000000000000000000000000000000000000000000000000815260040180806020018281038252600f8152602001807f5369676e6174757265206572726f72000000000000000000000000000000000081525060200191505060405180910390fd5b505050505050505050565b610f6d612a7a565b60408051908101604052807f2df5b91ddb38909f28944fca375432a64c9e0609d8222b8564e849191bfeef1b81526020017f0c0f45231950ddeaf05a1e8079d3f09aa6944134ad77e5e4bfbe43247bf072ac8152508160000181905250604080519081016040528060408051908101604052807f221e032c65515e5f765f4e2ed6820ce425c29900eb55cd5b6517b15b9b1dffc481526020017f272c1bacfdd393ab7a9459581cc875410e5ca7987fd9740936d5ed376172b11a815250815260200160408051908101604052807f2eef533d1670f77cc4c16f766f58dba226900eb00dd131df9558ccfb0b26423a81526020017f1065aa2e7479d1db011eb1fec08d43c3d2e120483fd913e7cf6bf05fed2bed038152508152508160200181905250604080519081016040528060408051908101604052807f25e7e96c6c1846e318fa66e76d72f5b77200df7373c79e99f6b51ac9fdf693ce81526020017f265b399533c94c9c4030a04157934ed932210bc0ec4c34b8cc99a460a53a4385815250815260200160408051908101604052807f08f065af8f16eb61dacb1ea10321d93755d54b580538c751c3b234f885043ecc81526020017f2e60dbbf68be89fa81ff7ee99081e0c029f8d9828fe0d39e877c49f3472855028152508152508160400181905250604080519081016040528060408051908101604052807f1957e199b25329d4189377cd085734a79b4d9d5e95bd60e9a7c0f52972004cd181526020017f15c5d152356b25a774be46062576b423a8f53868c6cfbf665d83b1ffaeb5414c815250815260200160408051908101604052807f089dbc973bb655b52c5e0fdba9f1d5f4fa14327748a96be42dc5837421797c4781526020017f12b2b28474ac70af425c38d9205123940c43edbe84dc4f5a8322d010638b2fa28152508152508160600181905250600660405190808252806020026020018201604052801561125457816020015b611241612add565b8152602001906001900390816112395790505b50816080018190525060408051908101604052807f15b7995761d8921f62c90ac9f6e97abd430161b4dd977942bac6fade3eee09f781526020017f1b54982ca79d49a91b5adb0c2bf0e9076ec777094db694c475dbb4845f5b61a3815250816080015160008151811015156112c557fe5b9060200190602002018190525060408051908101604052807f20a7dba19310cf996d69fb3768d08742ddb2c26423e98457d28052e313af7ce081526020017f2e357116a365f9a7f516518e468aab7e70df0d40803a4e07f5269e70e5474eec8152508160800151600181518110151561133a57fe5b9060200190602002018190525060408051908101604052807f0cfb7697f0a13ccb2d75e1bc39344d81a7555159738ddca7e8bd22896d2c12ef81526020017f05331030df9084410428fed80b4ee424b569b36f5531e58ce733a0083ed69742815250816080015160028151811015156113af57fe5b9060200190602002018190525060408051908101604052807f22e70609b7567c285a39fe9ceb43ab8058a2094cfef2cf16826da20a92cbc69a81526020017f204de1b37877fbbe0ab651152585f2967bd21c84f0f71980523d5ea99be6e2578152508160800151600381518110151561142457fe5b9060200190602002018190525060408051908101604052807f2a3cfad257c6a43fa5ef8116ef1a007e03f50b6c72548475938017c94e00e7d281526020017f1f8e696c0b9ec27698c146a6bfc96ba230725f03678ac771dba5bbbb0f1f3f068152508160800151600481518110151561149957fe5b9060200190602002018190525060408051908101604052807f2848cd08f98dd0b23b5d7fba5b2431393cbcfb2f667ca3709e80a598b4a050b081526020017f06a6db704eb8c5a79bc62f574c7c486199868c757d9758c0b85fdb40cb67f3078152508160800151600581518110151561150e57fe5b9060200190602002018190525090565b611526612ac3565b61152e612af7565b836000015181600060038110151561154257fe5b602002018181525050836020015181600160038110151561155f57fe5b6020020181815250508281600260038110151561157857fe5b6020020181815250506000606083608084600060076107d05a03f1905080600081146115a3576115a5565bfe5b508015156115b257600080fd5b505092915050565b6115c2612ac3565b6115ca612b1a565b83600001518160006004811015156115de57fe5b60200201818152505083602001518160016004811015156115fb57fe5b602002018181525050826000015181600260048110151561161857fe5b602002018181525050826020015181600360048110151561163557fe5b602002018181525050600060608360c084600060066107d05a03f19050806000811461166057611662565bfe5b5080151561166f57600080fd5b505092915050565b61167f612ac3565b60007f30644e72e131a029b85045b68181585d97816a916871ca8d3c208c16d87cfd479050600083600001511480156116bc575060008360200151145b156116e057604080519081016040528060008152602001600081525091505061170e565b60408051908101604052808460000151815260200182856020015181151561170457fe5b0683038152509150505b919050565b60006060600460405190808252806020026020018201604052801561175257816020015b61173f612add565b8152602001906001900390816117375790505b5090506060600460405190808252806020026020018201604052801561179257816020015b61177f612b3d565b8152602001906001900390816117775790505b5090508a8260008151811015156117a557fe5b90602001906020020181905250888260018151811015156117c257fe5b90602001906020020181905250868260028151811015156117df57fe5b90602001906020020181905250848260038151811015156117fc57fe5b906020019060200201819052508981600081518110151561181957fe5b906020019060200201819052508781600181518110151561183657fe5b906020019060200201819052508581600281518110151561185357fe5b906020019060200201819052508381600381518110151561187057fe5b906020019060200201819052506118878282612613565b9250505098975050505050505050565b606060206040519080825280601f01601f1916602001820160405280156118cd5781602001600182028038833980820191505090505b509050816020820152919050565b60608060006060736d58ae38ca510a119fb903b35b88fd5936a33ea773ffffffffffffffffffffffffffffffffffffffff168686604051602401808373ffffffffffffffffffffffffffffffffffffffff1673ffffffffffffffffffffffffffffffffffffffff16815260200180602001828103825283818151815260200191508051906020019080838360005b83811015611984578082015181840152602081019050611969565b50505050905090810190601f1680156119b15780820380516001836020036101000a031916815260200191505b5093505050506040516020818303038152906040527f3bf58dba000000000000000000000000000000000000000000000000000000007bffffffffffffffffffffffffffffffffffffffffffffffffffffffff19166020820180517bffffffffffffffffffffffffffffffffffffffffffffffffffffffff83818316178352505050506040518082805190602001908083835b602083101515611a695780518252602082019150602081019050602083039250611a44565b6001836020036101000a0380198251168184511680821785525050505050509050019150506000604051808303816000865af19150503d8060008114611acb576040519150601f19603f3d011682016040523d82523d6000602084013e611ad0565b606091505b5091509150811515611b4a576040517f08c379a000000000000000000000000000000000000000000000000000000000815260040180806020018281038252601a8152602001807f43616e6e6f74206163636573732049445020636f6e747261637400000000000081525060200191505060405180910390fd5b808060200190516040811015611b5f57600080fd5b810190808051640100000000811115611b7757600080fd5b82810190506020810184811115611b8d57600080fd5b8151856001820283011164010000000082111715611baa57600080fd5b50509291906020018051640100000000811115611bc657600080fd5b82810190506020810184811115611bdc57600080fd5b8151856001820283011164010000000082111715611bf957600080fd5b50509291905050508191508090509350935050509250929050565b6060806000606073ce43d89abbd54485be9a4009cc50f47dd623ae5473ffffffffffffffffffffffffffffffffffffffff16856040516024018080602001828103825283818151815260200191508051906020019080838360005b83811015611c8a578082015181840152602081019050611c6f565b50505050905090810190601f168015611cb75780820380516001836020036101000a031916815260200191505b50925050506040516020818303038152906040527fbff90821000000000000000000000000000000000000000000000000000000007bffffffffffffffffffffffffffffffffffffffffffffffffffffffff19166020820180517bffffffffffffffffffffffffffffffffffffffffffffffffffffffff83818316178352505050506040518082805190602001908083835b602083101515611d6e5780518252602082019150602081019050602083039250611d49565b6001836020036101000a0380198251168184511680821785525050505050509050019150506000604051808303816000865af19150503d8060008114611dd0576040519150601f19603f3d011682016040523d82523d6000602084013e611dd5565b606091505b5091509150811515611e4f576040517f08c379a000000000000000000000000000000000000000000000000000000000815260040180806020018281038252601a8152602001807f43616e6e6f742061636365737320444e5320636f6e747261637400000000000081525060200191505060405180910390fd5b808060200190516040811015611e6457600080fd5b810190808051640100000000811115611e7c57600080fd5b82810190506020810184811115611e9257600080fd5b8151856001820283011164010000000082111715611eaf57600080fd5b50509291906020018051640100000000811115611ecb57600080fd5b82810190506020810184811115611ee157600080fd5b8151856001820283011164010000000082111715611efe57600080fd5b5050929190505050819150809050935093505050915091565b60008060008090505b6020811015611fea576008810260ff7f01000000000000000000000000000000000000000000000000000000000000000286838701815181101515611f6157fe5b9060200101517f010000000000000000000000000000000000000000000000000000000000000090047f010000000000000000000000000000000000000000000000000000000000000002167effffffffffffffffffffffffffffffffffffffffffffffffffffffffffffff1916908060020a8204915050821791508080600101915050611f20565b508091505092915050565b6000611fff612b64565b61026060405190810160405280603060ff168152602001603160ff168152602001603060ff168152602001600d60ff168152602001600660ff168152602001600960ff168152602001606060ff168152602001608660ff168152602001604860ff168152602001600160ff168152602001606560ff168152602001600360ff168152602001600460ff168152602001600260ff168152602001600160ff168152602001600560ff168152602001600060ff168152602001600460ff168152602001602060ff168152509050600b602060ff16601301018351101515156120e457600080fd5b600060606120f38787876128a6565b90506000815190506000865190506060816040519080825280601f01601f1916602001820160405280156121365781602001600182028038833980820191505090505b5090508160208201846020870160056107d05a03fa50600060206013600385030303905060007f01000000000000000000000000000000000000000000000000000000000000000282600081518110151561218d57fe5b9060200101517f010000000000000000000000000000000000000000000000000000000000000090047f0100000000000000000000000000000000000000000000000000000000000000027effffffffffffffffffffffffffffffffffffffffffffffffffffffffffffff19161415806122875750600182600181518110151561221357fe5b9060200101517f010000000000000000000000000000000000000000000000000000000000000090047f0100000000000000000000000000000000000000000000000000000000000000027f0100000000000000000000000000000000000000000000000000000000000000900460ff1614155b1561229c57600197505050505050505061260b565b600295505b8060020186101561236f5760ff7f01000000000000000000000000000000000000000000000000000000000000000282878151811015156122de57fe5b9060200101517f010000000000000000000000000000000000000000000000000000000000000090047f0100000000000000000000000000000000000000000000000000000000000000027effffffffffffffffffffffffffffffffffffffffffffffffffffffffffffff191614151561236257600297505050505050505061260b565b85806001019650506122a1565b60007f01000000000000000000000000000000000000000000000000000000000000000282826002018151811015156123a457fe5b9060200101517f010000000000000000000000000000000000000000000000000000000000000090047f0100000000000000000000000000000000000000000000000000000000000000027effffffffffffffffffffffffffffffffffffffffffffffffffffffffffffff191614151561242857600397505050505050505061260b565b600095505b60138610156124f457868660138110151561244457fe5b602002015160ff168287836003010181518110151561245f57fe5b9060200101517f010000000000000000000000000000000000000000000000000000000000000090047f0100000000000000000000000000000000000000000000000000000000000000027f0100000000000000000000000000000000000000000000000000000000000000900460ff161415156124e757600497505050505050505061260b565b858060010196505061242d565b600095505b602060ff168610156125ff578b8660208110151561251357fe5b1a7f0100000000000000000000000000000000000000000000000000000000000000027effffffffffffffffffffffffffffffffffffffffffffffffffffffffffffff19168287601384600301010181518110151561256e57fe5b9060200101517f010000000000000000000000000000000000000000000000000000000000000090047f0100000000000000000000000000000000000000000000000000000000000000027effffffffffffffffffffffffffffffffffffffffffffffffffffffffffffff19161415156125f257600597505050505050505061260b565b85806001019650506124f9565b60009750505050505050505b949350505050565b60008151835114151561262557600080fd5b60008351905060006006820290506060816040519080825280602002602001820160405280156126645781602001602082028038833980820191505090505b50905060008090505b8381101561284257868181518110151561268357fe5b906020019060200201516000015182600060068402018151811015156126a557fe5b906020019060200201818152505086818151811015156126c157fe5b906020019060200201516020015182600160068402018151811015156126e357fe5b906020019060200201818152505085818151811015156126ff57fe5b9060200190602002015160000151600060028110151561271b57fe5b6020020151826002600684020181518110151561273457fe5b9060200190602002018181525050858181518110151561275057fe5b9060200190602002015160000151600160028110151561276c57fe5b6020020151826003600684020181518110151561278557fe5b906020019060200201818152505085818151811015156127a157fe5b906020019060200201516020015160006002811015156127bd57fe5b602002015182600460068402018151811015156127d657fe5b906020019060200201818152505085818151811015156127f257fe5b9060200190602002015160200151600160028110151561280e57fe5b6020020151826005600684020181518110151561282757fe5b9060200190602002018181525050808060010191505061266d565b5061284b612b88565b60006020826020860260208601600060086107d05a03f19050806000811461287257612874565bfe5b5080151561288157600080fd5b600082600060018110151561289257fe5b602002015114159550505050505092915050565b60606000825184518651606001010190506000855190506000855190506000855190506000806000806060886040519080825280601f01601f1916602001820160405280156129045781602001600182028038833980820191505090505b50905060208d01945060208c01935060208b01925087602082015286604082015285606082015260208101915061294060608301868f5161297a565b6129528d516060840101858e5161297a565b6129678c518e51606085010101848d5161297a565b8099505050505050505050509392505050565b5b6020811015156129a0578151835260208301925060208201915060208103905061297b565b60006001826020036101000a0390508019835116818551168181178652505050505050565b610100604051908101604052806129da612add565b81526020016129e7612b3d565b81526020016129f4612add565b81525090565b828054600181600116156101000203166002900490600052602060002090601f016020900481019282601f10612a3b57805160ff1916838001178555612a69565b82800160010185558215612a69579182015b82811115612a68578251825591602001919060010190612a4d565b5b509050612a769190612bab565b5090565b6101e060405190810160405280612a8f612add565b8152602001612a9c612b3d565b8152602001612aa9612b3d565b8152602001612ab6612b3d565b8152602001606081525090565b604080519081016040528060008152602001600081525090565b604080519081016040528060008152602001600081525090565b606060405190810160405280600390602082028038833980820191505090505090565b608060405190810160405280600490602082028038833980820191505090505090565b608060405190810160405280612b51612bd0565b8152602001612b5e612bd0565b81525090565b61026060405190810160405280601390602082028038833980820191505090505090565b602060405190810160405280600190602082028038833980820191505090505090565b612bcd91905b80821115612bc9576000816000905550600101612bb1565b5090565b90565b604080519081016040528060029060208202803883398082019150509050509056fea165627a7a7230582048bf3a3755c04f5bb4fdcfaa11c9194021e864a18a6a945e0c0424f01b87d3590029",
  "source": "pragma solidity ^0.5.0;\n\nimport './lib/rsaverify.sol';\nimport './lib/verifier.sol';\n\ncontract Library {\n    using Pairing for *;\n    using rsaverify for *;\n\n    address constant idpContract = 0x6D58AE38ca510a119fb903B35B88Fd5936a33eA7;\n    address constant dnsContract = 0xCE43d89aBBD54485be9a4009Cc50F47dD623aE54;\n\n    address private owner;\n    string private ipfsHash;\n    mapping(address => bool) private authenticated;\n\n    constructor() public {\n        owner = msg.sender;\n    }\n\n    function isAuthenticated() public view returns(bool) {\n        return authenticated[msg.sender];\n    }\n\n    function getIpfsHash() public view returns(string memory) {\n        return ipfsHash;\n    }\n\n    function setIpfsHash(string memory _ipfsHash) public onlyOwner () {\n        ipfsHash = _ipfsHash;\n    }\n\n    function getHashAndSignature(address addr, string memory attributeType) private returns(bytes memory, bytes memory) {\n        (bool success, bytes memory result) = idpContract.call(abi.encodeWithSignature(\"getData(address,string)\", addr, attributeType));\n        require(success, \"Cannot access IDP contract\");\n        return abi.decode(result, (bytes, bytes));\n    }\n\n    function getModulusAndExponent(string memory attributeType) private returns(bytes memory, bytes memory) {\n        (bool success, bytes memory result) = dnsContract.call(abi.encodeWithSignature(\"getPublicKey(string)\", attributeType));\n        require(success, \"Cannot access DNS contract\");\n        return abi.decode(result, (bytes, bytes));\n    }\n\n    function verifyHashSignature(string memory attributeType, uint a, uint b) private {\n        bytes memory inputHash = toBytes(a * 340282366920938463463374607431768211456 + b);\n        (bytes memory hash, bytes memory signature) = getHashAndSignature(msg.sender, attributeType);\n        require(keccak256(inputHash) == keccak256(hash), \"Hash value in proof.json is diffrent from hash value in the ledger\");\n        (bytes memory modulus, bytes memory exponent) = getModulusAndExponent(attributeType);\n        bytes32 hash32 = bytesToBytes32(hash, 0);\n        require(hash32.pkcs1Sha256Verify(signature, exponent, modulus) == 0, \"Signature error\");\n    }\n\n    function authenticate(uint[2] memory a, uint[2][2] memory b, uint[2] memory c, uint[5] memory input) public {\n        require(!authenticated[msg.sender], \"You have been already authenticated\");\n        verifyHashSignature('name', input[0], input[1]);\n        verifyHashSignature('uni', input[2], input[3]);\n        require(verifyTx(a, b, c, input), \"Invalid proof.json\");\n        authenticated[msg.sender] = true;\n    }\n\n    function toBytes(uint x) private pure returns (bytes memory b) {\n        b = new bytes(32);\n        assembly { mstore(add(b, 32), x) }\n    }\n\n    function bytesToBytes32(bytes memory b, uint offset) private pure returns (bytes32) {\n        bytes32 out;\n\n        for (uint i = 0; i < 32; i++) {\n            out |= bytes32(b[offset + i] & 0xFF) >> (i * 8);\n        }\n        return out;\n    }\n\n    modifier onlyOwner {\n        require(msg.sender == owner, \"Only owner can call this function.\");\n        _;\n    }\n\n    struct VerifyingKey {\n        Pairing.G1Point a;\n        Pairing.G2Point b;\n        Pairing.G2Point gamma;\n        Pairing.G2Point delta;\n        Pairing.G1Point[] gamma_abc;\n    }\n    struct Proof {\n        Pairing.G1Point a;\n        Pairing.G2Point b;\n        Pairing.G1Point c;\n    }\n    function verifyingKey() pure internal returns (VerifyingKey memory vk) {\n        vk.a = Pairing.G1Point(uint256(0x2df5b91ddb38909f28944fca375432a64c9e0609d8222b8564e849191bfeef1b), uint256(0x0c0f45231950ddeaf05a1e8079d3f09aa6944134ad77e5e4bfbe43247bf072ac));\n        vk.b = Pairing.G2Point([uint256(0x221e032c65515e5f765f4e2ed6820ce425c29900eb55cd5b6517b15b9b1dffc4), uint256(0x272c1bacfdd393ab7a9459581cc875410e5ca7987fd9740936d5ed376172b11a)], [uint256(0x2eef533d1670f77cc4c16f766f58dba226900eb00dd131df9558ccfb0b26423a), uint256(0x1065aa2e7479d1db011eb1fec08d43c3d2e120483fd913e7cf6bf05fed2bed03)]);\n        vk.gamma = Pairing.G2Point([uint256(0x25e7e96c6c1846e318fa66e76d72f5b77200df7373c79e99f6b51ac9fdf693ce), uint256(0x265b399533c94c9c4030a04157934ed932210bc0ec4c34b8cc99a460a53a4385)], [uint256(0x08f065af8f16eb61dacb1ea10321d93755d54b580538c751c3b234f885043ecc), uint256(0x2e60dbbf68be89fa81ff7ee99081e0c029f8d9828fe0d39e877c49f347285502)]);\n        vk.delta = Pairing.G2Point([uint256(0x1957e199b25329d4189377cd085734a79b4d9d5e95bd60e9a7c0f52972004cd1), uint256(0x15c5d152356b25a774be46062576b423a8f53868c6cfbf665d83b1ffaeb5414c)], [uint256(0x089dbc973bb655b52c5e0fdba9f1d5f4fa14327748a96be42dc5837421797c47), uint256(0x12b2b28474ac70af425c38d9205123940c43edbe84dc4f5a8322d010638b2fa2)]);\n        vk.gamma_abc = new Pairing.G1Point[](6);\n        vk.gamma_abc[0] = Pairing.G1Point(uint256(0x15b7995761d8921f62c90ac9f6e97abd430161b4dd977942bac6fade3eee09f7), uint256(0x1b54982ca79d49a91b5adb0c2bf0e9076ec777094db694c475dbb4845f5b61a3));\n        vk.gamma_abc[1] = Pairing.G1Point(uint256(0x20a7dba19310cf996d69fb3768d08742ddb2c26423e98457d28052e313af7ce0), uint256(0x2e357116a365f9a7f516518e468aab7e70df0d40803a4e07f5269e70e5474eec));\n        vk.gamma_abc[2] = Pairing.G1Point(uint256(0x0cfb7697f0a13ccb2d75e1bc39344d81a7555159738ddca7e8bd22896d2c12ef), uint256(0x05331030df9084410428fed80b4ee424b569b36f5531e58ce733a0083ed69742));\n        vk.gamma_abc[3] = Pairing.G1Point(uint256(0x22e70609b7567c285a39fe9ceb43ab8058a2094cfef2cf16826da20a92cbc69a), uint256(0x204de1b37877fbbe0ab651152585f2967bd21c84f0f71980523d5ea99be6e257));\n        vk.gamma_abc[4] = Pairing.G1Point(uint256(0x2a3cfad257c6a43fa5ef8116ef1a007e03f50b6c72548475938017c94e00e7d2), uint256(0x1f8e696c0b9ec27698c146a6bfc96ba230725f03678ac771dba5bbbb0f1f3f06));\n        vk.gamma_abc[5] = Pairing.G1Point(uint256(0x2848cd08f98dd0b23b5d7fba5b2431393cbcfb2f667ca3709e80a598b4a050b0), uint256(0x06a6db704eb8c5a79bc62f574c7c486199868c757d9758c0b85fdb40cb67f307));\n    }\n    function verify(uint[] memory input, Proof memory proof) internal returns (uint) {\n        uint256 snark_scalar_field = 21888242871839275222246405745257275088548364400416034343698204186575808495617;\n        VerifyingKey memory vk = verifyingKey();\n        require(input.length + 1 == vk.gamma_abc.length);\n        // Compute the linear combination vk_x\n        Pairing.G1Point memory vk_x = Pairing.G1Point(0, 0);\n        for (uint i = 0; i < input.length; i++) {\n            require(input[i] < snark_scalar_field);\n            vk_x = Pairing.addition(vk_x, Pairing.scalar_mul(vk.gamma_abc[i + 1], input[i]));\n        }\n        vk_x = Pairing.addition(vk_x, vk.gamma_abc[0]);\n        if(!Pairing.pairingProd4(\n            proof.a, proof.b,\n                Pairing.negate(vk_x), vk.gamma,\n            Pairing.negate(proof.c), vk.delta,\n            Pairing.negate(vk.a), vk.b)) return 1;\n            return 0;\n    }\n    event Verified(string s);\n    function verifyTx(\n        uint[2] memory a,\n        uint[2][2] memory b,\n        uint[2] memory c,\n        uint[5] memory input\n    ) public returns (bool r) {\n        Proof memory proof;\n        proof.a = Pairing.G1Point(a[0], a[1]);\n        proof.b = Pairing.G2Point([b[0][0], b[0][1]], [b[1][0], b[1][1]]);\n        proof.c = Pairing.G1Point(c[0], c[1]);\n        uint[] memory inputValues = new uint[](input.length);\n        for(uint i = 0; i < input.length; i++){\n            inputValues[i] = input[i];\n        }\n        if (verify(inputValues, proof) == 0) {\n            emit Verified(\"Transaction successfully verified.\");\n            return true;\n        } else {\n            return false;\n        }\n    }\n}\n",
  "sourcePath": "/Users/dakennguyen/Documents/Workspace/Blockchain/thesis/services/library/contracts/Library.sol",
  "compiler": {
    "name": "solc",
    "version": "0.5.0+commit.1d4f565a.Emscripten.clang"
  },
  "schemaVersion": "3.0.2",
  "updatedAt": "2019-12-09T18:46:40.928Z",
  "devdoc": {
    "methods": {}
  },
  "userdoc": {
    "methods": {}
  }
}